:020000040000FA
:100000006026002005030000370300000102000005
:100010003B0300003D0300003F0300000000000020
:100020000000000000000000000000005901000076
:1000300043030000000000009D010000B12000000B
:100040004903000049030000490300004903000080
:100050004903000049030000490300004903000070
:100060004903000049030000490300004903000060
:100070004903000049030000490300004903000050
:100080004903000049030000490300004903000040
:100090004903000049030000490300004903000030
:1000A0004903000049030000490300004903000020
:1000B0004903000049030000490300004903000010
:1000C0004903000049030000490300004903000000
:1000D00049030000490300004903000049030000F0
:1000E00049030000490300004903000049030000E0
:1000F00049030000490300004903000049030000D0
:1001000049030000490300004903000049030000BF
:1001100049030000490300004903000049030000AF
:10012000490300004903000049030000490300009F
:10013000490300004903000049030000490300008F
:10014000DFF810D002F06EFE0048004761030000A7
:10015000AFF3008060260020234B19680868B0E8E0
:10016000F04F80F309884FF0000080F3118870474A
:100170000000000003480068006880F3088862B649
:1001800000DF00BF08ED00E0DFF80C00016841F47B
:1001900070010160704700BF88ED00E0EFF3098057
:1001A000114B1A681EF0100F08BF20ED108A20E9CD
:1001B000F04F106008B54FF0500080F3118800F048
:1001C000DBFE4FF0000080F31188BDE8084019689D
:1001D0000868B0E8F04F1EF0100F08BFB0EC108AAE
:1001E00080F30988704700BF70000020EFF3118092
:1001F0004FF0500181F31188704780F311887047E8
:1002000004207146084202D0EFF3098001E0EFF3C9
:1002100008807146004A1047DD21000018B533A060
:100220004FF0804400680090D4F8400210F4A02FF2
:1002300001D0002117E0010301D52D4900E02D492F
:10024000820310D4C0F30802C0F381338908921CE2
:100250001DF80330C0F344205143801C10FB03F011
:10026000B1FBF0F08100244A9160D4F8100200F054
:100270000700022803D002F10C0151F82010D4F835
:10028000200200F00F00401CB1FBF0F01B49106091
:1002900008444900B0FBF1F0506018BD10B5592179
:1002A000162288238807C0F80011C0F80021C0F882
:1002B0000031D0F80041002CF5D0016840F645121D
:1002C000B2EB113F03D1416941F080014161D0F8A7
:1002D000001221F48051C0F800120021C0F8001172
:1002E0000748016841F47001016010BD0102020479
:1002F00000805101001BB7000000002020A1070072
:1003000088ED00E011484FF0590101604FF01601EF
:1003100001604FF0880101600D4A45F6A52111608A
:100320000C4A116821F480511160002101600A48D3
:1003300080470A480047FEE7FEE7FEE7FEE7FEE7E4
:10034000FEE7FEE7FEE7FEE7FEE7000000010040F3
:1003500024000040000200409D0200004101000016
:100360001FB5002400F045F8494E002504EB440772
:1003700006EBC700027C41690092CDE901150395A7
:100380000189C3688AB2416856F8370000F09AFBC9
:10039000641C032CEAD3042000F012FB3DA002F001
:1003A00073FD00F0C6FEFEE7FFF720FFFEE7704793
:1003B000FFF71CFFFEE700F068BA08B500F0E5FEA5
:1003C00000903BA002F060FD42A002F05DFD41F212
:1003D00088342146684600F02CFD00F015FB01280A
:1003E000F7D042A002F050FDF3E700F047BB00F069
:1003F0002DBB70B55920840716218822C4F800014E
:10040000C4F80011C4F80021D4F80031002BF5D055
:10041000042002F02AFB102002F0E0F9002107205E
:1004200002F0EFF9012002F020FB012002F0D6F9E2
:100430003349002002F01FFA0021022002F0E1F906
:10044000304D00221146284602F02CF9284602F0D1
:100450004EF92D4802F04BF9FFF7E0FEA06C20F0BA
:10046000FF00A064A06C40F03300A0640020C4F83A
:1004700000014FF4E131254801F0CBFF01220421B6
:10048000234802F050FBBDE8704002F07BBB000047
:10049000BC3100004672656552544F532069732089
:1004A0007374617274696E67202E2E2E0A0000002C
:1004B0004D343531204C656420546F702054617385
:1004C0006B2069732072756E6E696E67202E2E2EFA
:1004D0000A0000004C454420546F67676C6520613A
:1004E000742050422E30320A0A0000004552524F0A
:1004F0005220494E20504F4C4C20510A0000000021
:1005000000A24A04103D80570200805E00000740B0
:100510004040004010B500281AD101F0BCFD1D4933
:100520001D4A088810F0040F06D020F0040008804F
:100530000020106019A005E040F0040008800120B0
:1005400010601BA002F0A0FCBDE8104001F0A9BDA6
:1005500010BD70B50A2590FBF5F40646014619A0BA
:1005600002F092FCF00707D01DA002F08DFC94FB76
:10057000F5F0C0B2012108E020A002F085FC94FB58
:10058000F5F005FB1040C0B20221BDE8704002F05A
:1005900047BB00002C0000204848004050422E304D
:1005A00032204F7574707574204C6F0A0000000083
:1005B00050422E3032204F75747075742048690A8D
:1005C0000000000054686520372D536567204C45B6
:1005D000442076616C7565206973202564200A00CB
:1005E00053686F7720372D536567204C4544206C46
:1005F0006F772062797465200A00000053686F7776
:1006000020372D536567204C454420686967682072
:1006100062797465200A000010B50122884205D96C
:10062000401A032808D9FFF7E1FDFEE7081A03285E
:1006300002D9FFF7DBFDFEE7104610BD70B54FF69F
:10064000FF730025AF4C984219D32146C61A096A98
:100650004A1C062E01D2226270BDC643062E04D863
:100660002262002AF8D1236270BDFFF7D5FF01286E
:1006700001D0656070BD206A401C206270BDA14938
:10068000C9694A1C062801D2E26170BD4FF6FE76A8
:10069000361A062E04D8E2619A42F6D3E56170BD9F
:1006A000FFF7BAFF0128E4D1E069401CE06170BDAA
:1006B0002DE9F0418046092001F077FC914D00249E
:1006C000914F2646A86200220421032001F037F949
:1006D00047F8240028B1A96A01F06AFC012809D171
:1006E00002E0FFF783FDFEE757F82400A96A01F056
:1006F0005FFC00B16E60641C032CE4DB00213868F1
:1007000001F064FC00B16E603868A96A01F05EFC1B
:10071000012800D06E603868A96A01F049FC012800
:1007200000D06E60C821A86A01F061FC00B16E6063
:10073000404600F08FFC0120A860BDE8F08108B5BC
:10074000FFF7B6FF6F4C4FF0FF3600253146A06A29
:1007500001F04DFCA8B100231A46694601F074FA75
:10076000012800D0656001F096FC0098FFF766FF55
:1007700001F097FC60680128E8D12068401C2060E7
:10078000E4E7FFF733FDFEE708B500260124354610
:100790006846009602F0D0FADFF86C914FF003083B
:1007A00009F10C074FF0FF3B4FF6FF7A02F0BAFA5F
:1007B00090FBF8F208FB1201002357F8212059F8AA
:1007C0002100521C47F821205A46694601F065F97C
:1007D000012801D04B4846600098401C00905045CD
:1007E00000D100966D1C642DE0D30025641C022C02
:1007F00000D900242146002000F06FFBD6E730B579
:1008000085B00024012504A80095CDE90104234604
:1008100032223EA13F48039400F054F9CDE9005440
:100820000294039432223CA13D48049B00F04AF913
:10083000049800F0C8FB05B030BD70B5314C012004
:10084000226921688A4200D10020216821612E4D51
:1008500000211835A5F10C0355F8216053F821202B
:10086000964200D1002045F82120491C0329F3DBE2
:100870006168012900D00020E1686269914201D1DC
:10088000002070BDE168616170BD38B51D4CA06885
:10089000012818D1A069401CA061642813D9002543
:1008A000A561A06A01F0ACFB48B10022694601F0E5
:1008B000C8FA012800D065600098FFF7BFFEBDE8C8
:1008C000384000F001B838BD10B50E4C0E49002379
:1008D000606A1A4651F8200004F10C0101F06FFA29
:1008E00001280ED1E068401CE060E06810B94FF6C6
:1008F000FF70E060606A401C6062032801DB00203A
:10090000606210BD30000020E00000205365745488
:1009100078000000890700005365745278000000D9
:100920003F07000008B5074600203D4EADF8000027
:100930000546002400231A466946386801F0ADF8E0
:10094000012801D001250CE035B901F0A4FB706845
:10095000401C706001F0A5FBBDF80000401CADF824
:100960000000641C032CE5DBC82000F092FAE0E7ED
:1009700008B5002406462546294F18E000231A46EC
:100980006946306801F060F9012810D1BDF8000017
:10099000A04202D00125044607E035B901F07BFBF7
:1009A0003868401C386001F07CFB641CA4B23068DD
:1009B00001F07FFA0028E1D1B42000F06AFAF6E7EE
:1009C0007FB50546002202210A2000F0B8FF144935
:1009D000886014A101F0BEFA0024CDE90054104B48
:1009E00002940833322213A11448039400F06AF8E9
:1009F000CDE900540A4B02940833322210A1124868
:100A0000039400F05FF87FBD0549086830B148687D
:100A100020B1012000220A604A6070470020F9E7F7
:100A20005C000020506F6C6C5F546573745F51758F
:100A30006575650051436F6E734E42007109000089
:100A40005150726F644E42002509000008B500F055
:100A50009CFB094D4FF47A7400900521684600F024
:100A6000E8F92868401C90FBF4F104FB11002860B1
:100A7000FFF76FFDF1E700006800002008B501F006
:100A80000AFB0F490C680868401C086001F009FB6C
:100A900040F24D10604300F24D10450800F075FB28
:100AA00000902946684600F0C4F92046FFF732FD61
:100AB0002946684600F0BDF92046FFF72BFDF0E718
:100AC0006C0000202DE9FF5FDDE90E68109F1546E0
:100AD0008A465FEA000B04D0052E05D3FFF786FB9C
:100AE000FEE7FFF783FBFEE74C2001F0F9FA040074
:100AF00009D0A8008146AFB138462063A8B1A5222D
:100B0000494602F033F9002C7ED06FF00300216BD0
:100B100000EB8500084420F0070568070AD0FFF7BE
:100B200065FBFEE701F0DCFAE7E7204601F031FB68
:100B30000024E8E751460A2204F1340002F034F9B7
:100B4000002084F83D00E662201DA66400F085FECA
:100B500004F1180000F081FE2461C6F10500646212
:100B6000A06159462846039A01F056FA2060B8F170
:100B7000000F01D0C8F8004001F08DFAFC4FB868B2
:100B8000401CB8603868DFF8EC8310B1B86940B336
:100B90002CE03C60B868012828D1002505EB8501D0
:100BA00008EB810000F04EFE6D1C052DF6D3F148D8
:100BB000643000F047FEEF48783000F043FEED4827
:100BC0008C3000F03FFEEB48A03000F03BFEE948DF
:100BD000B43000F037FEE748643078631430B8630F
:100BE00004E03868C06AB04200D83C60E06A396905
:100BF000884200D93861F96A491CF962216479692F
:100C0000884200D9786100E015E000EB800108EB34
:100C10008100211D00F024FE012401F042FAB86990
:100C200028B13868C06AB04201D201F02EFA04B08F
:100C30002046BDE8F09F4FF0FF34F8E770B5054659
:100C400001F029FACA4E3068854201D1002520E022
:100C5000FDB12C46201D00F029FEA06A18B104F158
:100C6000180000F023FEC348211DA03000F0F8FD5D
:100C70007068401C7060F06A401CF06201F011FA6C
:100C8000B069002807D0002D05D1BDE8704001F003
:100C9000FCB93468DEE770BD2DE9F041B44DE86978
:100CA00058B1286A401C2862FFF785FB286A002893
:100CB0004AD1BDE8F041FFF77EBBE868401CE86020
:100CC000E8684FF0FF36A0B9686B006810B1FFF715
:100CD0008DFAFEE7686BA96B6963A863A86A401C7C
:100CE000A862686B0068A8B1686BC068C06840689B
:100CF0002863E868296B8842D8D39E4F686B0068E8
:100D000050B1686BC068C468E9686068814205D208
:100D10002863CBE72E63ECE72E63C7E7201D00F0C6
:100D2000C5FDA06A18B104F1180000F0BFFDE06A2B
:100D30006969884200D9686100EB800007EB800098
:100D4000211D00F08DFDD9E7BDE8F0812DE9F047C8
:100D5000874D0027E86938B101F09DF9E869401E28
:100D6000E861E86918B142E0FFF740FAFEE7A868D9
:100D700098B3DFF80082002608F18C08DFF8F491C0
:100D80001AE0C068C46804F1180000F08FFD201D4F
:100D900000F08CFDE06A6969884200D9686100EB67
:100DA000800109EB8100211D00F05AFDE06A2968ED
:100DB000C96A884200D30126D8F8001040460029AD
:100DC000DFD1286A28B909E0FFF766FF286A401ECC
:100DD0002862286A0028F7D104E008E016B9686A9A
:100DE000012804D100200127686201F04EF901F0CA
:100DF00058F93846BDE8F08770B55D4D044628685F
:100E00004460E8682968844205D2A86BBDE8704058
:100E1000091D00F033BD686B091D00F02FFD286B24
:100E2000844200D22C6370BD5148C169491CC16124
:100E3000704770B50C4603004FF000020BD06CB148
:100E4000FFF7F2FF4A491868CD680444A84208D960
:100E5000A04208D80BE0FFF7C9F9FEE7FFF7C6F993
:100E6000FEE7A04202D8C868844200D901221C6073
:100E700032B10868001D00F019FD2046FFF7BCFFE5
:100E8000FFF764FF002803D1BDE8704001F0FDB812
:100E900070BD10B502000FD0FFF7C6FF3448C1681F
:100EA00000688C18001D00F001FD2046FFF7A4FF2C
:100EB000FFF74CFF002803D1BDE8104001F0E5B872
:100EC00010BD10B5044601F0E6F80CB928480468D6
:100ED000E46A01F0E6F8204610BD2DE9F041002754
:100EE0000D460646052902D3FFF780F9FEE701F01B
:100EF000D2F8DFF87C80D8F80000864201D10026C5
:100F000008E03EB13446A06CA8422CD0854204D9FA
:100F100026B904E0D8F80040F5E706B90127E16AF0
:100F2000884200D1E562C5F10501A564A161114DBA
:100F300000EB8000616905EB8000814210D1201D2B
:100F400000F0B4FCE06AD8F814204146904200D981
:100F5000486100EB800005EB8000211D00F080FC63
:100F60000FB101F092F8BDE8F04101F09AB800002D
:100F7000700000202C010020FB4910B5C869FB4A15
:100F800030B10120486210BDD0B14869401E4861AF
:100F9000486900EB800052F8200000284869F3D02F
:100FA00000EB800002EB80004268526800F1080309
:100FB00042609A4201D152684260D068086010BD18
:100FC000FFF714F9FEE770B5054601F064F8E64E48
:100FD0003068854201D1002519E0C5B12C46201D9D
:100FE00000F064FCA06A18B104F1180000F05EFC87
:100FF000DE48211DB43000F033FC01F052F8002D22
:101000000FD1B06928B1BDE8704001F03EB8346836
:10101000E5E7D648B4300068B168884202D10020C4
:10102000306070BDBDE87040A6E710B5002158B132
:10103000CE4B4269B4339A420AD1806AA3F12802A6
:10104000904205D018B103E0FFF7D0F8FEE7012188
:10105000084610BD70B560B1C34D0446286884428F
:1010600025D001F018F82046FFF7DFFF012803D054
:1010700019E0FFF7BBF8FEE7201D00F017FCE06A5F
:101080006969884200D96861B84900EB800001EBCA
:101090008000211D00F0E4FBE06A2968C96A8842EB
:1010A00001D300F0F2FFBDE8704000F0FABF70BD60
:1010B0002DE9F041002548B10446FFF797F80746AF
:1010C0002046FFF7B2FF012803D022E0FFF78EF899
:1010D000FEE7A54EF06920B1A44804F118018C3058
:1010E00015E0E06A3168C96A884201D3012500E051
:1010F0000025201D00F0DAFBE06A7169884200D902
:1011000070619A4900EB800001EB8000211D00F026
:10111000A7FB3846FFF771F8284615E6934C00F018
:10112000DAF92068012801D900F0AFFFFFF73FF995
:10113000F5E71FB50024009401940294234632225F
:101140008BA18D480394FFF7BDFC012803D100F06B
:1011500068FA012804D000280CD1FFF747F8FEE711
:10116000FFF744F8804801218161C460BDE81F4059
:1011700000F070BF1FBD10B5FFF738F87A490020A6
:101180008861BDE8104000F07FBF10B500F083FF1C
:101190007548C46800F085FF204610BD10B5FFF704
:1011A00025F87149CC68FFF728F8204610BD6E4835
:1011B000806870472DE9FE438146486890460D4699
:1011C000406801F108064860B04201D14168696099
:1011D0006868C768686840686860B04201D1416863
:1011E00069606868C468206B002102E0491C89B20C
:1011F000401C0278A52AF9D08808216CE26ACDE962
:1012000000205A480291434604F134025BA1283879
:1012100001F04AFE55494846283901F0B9FDBC4263
:10122000D8D1BDE8FE832DE9F0410746FFF7FCFD6C
:101230000020387056A1384601F0AAFD4A4D4B4EA9
:101240002C69641C641E04EB840056F8201029B13C
:1012500006EB800152223846FFF7ACFF002CF1D19B
:10126000686B006820B1696B42223846FFF7A2FF25
:10127000A86B006820B1A96B42223846FFF79AFF9D
:101280003A48A030006828B138494422A031384695
:10129000FFF790FF3548B430006828B13349532236
:1012A000B4313846FFF786FFBDE8F0414EE570B532
:1012B0000D4678B12C4C2168183100F0DFFA206817
:1012C000001D00F0F3FA681C07D0E0682844BDE870
:1012D000704091E5FEF78AFFFEE721682348BDE8EC
:1012E0007040B430091D00F0BBBA70B50D4668B14E
:1012F0001D4C2168183100F0B3FA2068001D00F081
:10130000D5FAE0682844BDE8704075E5FEF76EFF49
:10131000FEE770B5C068C4685CB104F11800064609
:1013200000F0C4FA104DE86930B1104831468C30F5
:1013300010E0FEF75BFFFEE7201D00F0B7FAE06A61
:101340006969884200D96861084900EB800001EBB7
:101350008000211D00F084FAE06A2968C96A884289
:1013600018D3012070BD0000700000202C01002067
:1013700049444C45000000001D1100002573090977
:1013800025630925750925750925750D0A000000D5
:101390000D0A00000020E5E710B528B162498A6A0D
:1013A0000260C968416010BDFEF720FFFEE770B51E
:1013B0000D4604001CD0F5B100F06DFE2868411CFC
:1013C00014D0594A2168936A994203D06168D3685E
:1013D000994213D96168D3685B1A83420ED2D268EE
:1013E000511A401A28602046FFF7D6FF002406E075
:1013F000FEF7FCFEFEE7FEF7F9FEFEE7012400F033
:1014000050FE2046AEE74849012048627047002858
:1014100000D0406C7047002800D0416470474248BB
:10142000006870474048816919B1C06918B102204D
:101430007047002070470120704770B5040091D0BC
:10144000394DE06A2968C96A88428BD22868374ECC
:10145000C06AC0F10500A061E06A616900EB80002C
:1014600006EB8000814212D1201D00F01FFA28688F
:10147000C06AE0626969884200D9686100EB800057
:1014800006EB8000211DBDE8704000F0E9B9286836
:10149000C06AE06266E710B504001BD0A16CE06A88
:1014A000884217D0201D00F001FAA06CE062C0F164
:1014B00005001D49A061E06A4A69904200D948616F
:1014C0001A4900EB800001EB8000211DBDE81040AF
:1014D00000F0C6B910BD70B5144E134DA0361FE014
:1014E000FFF7A2FC306820B10024FFF72FFCBCB945
:1014F00001E00124F9E700F0CEFDF068C468201D8A
:1015000000F0D4F9A868401EA8606868401E6860B2
:1015100000F0C7FD206B00F03CFE204600F039FED5
:1015200068680028DCD11DE7700000202C01002035
:1015300070B500244160BE4D0061914206D8D11AB9
:101540008269914206D2011DE86807E09A4203D2FF
:10155000994201D3012403E0011DA86800F08EF92F
:10156000204670BDFEB5B24D1F4603462C680020D4
:10157000089E002C08D08DE80E0037B100233A46B3
:101580006946204600F01BFCFEBDFFF74BFF01281B
:101590004FF0000305D000226946286800F07DFA6C
:1015A000FEBD3246F8E770B50546FFF7EEFDA04EEA
:1015B00004467068844203D200F07AF8012000E00B
:1015C000002028602046746070BD994CA0680168B6
:1015D00039B1002139B1002000F0E6F800F097F8A9
:1015E000F4E70121F6E7C0680068F5E710B500F000
:1015F00052FD8F4C206880B98E4800F023F98D4849
:10160000143000F01FF98B48A0601430E060002215
:101610000C210A2000F093F92060BDE8104000F092
:1016200040BD1FB5FFF7E2FF8148006868B10020A8
:101630000221CDE9001002900346039064227EA1AE
:101640007F48FFF73FFA002802D1FEF7CFFDFEE703
:1016500004B010BD2DE9F0471E46DDF82090174676
:101660000D00804612D0282000F03AFD04000AD078
:10167000FFF7BCFFC4F80080C4E90657C4E9086955
:10168000201D00F0EAF82046BDE8F087FEF7AEFD29
:10169000FEE710B5044600F0FEFC606908B10124C5
:1016A00000E0002400F0FDFC204610BD006A7047F9
:1016B000F8B55F4E20E0C1680D68C068C468201DA1
:1016C00000F0F4F8616A20468847E069012813D1E8
:1016D000A0692844A84206D924616060211DB06831
:1016E00000F0CCF808E000200346014600902A46AE
:1016F0002046FFF737FF38B1B06801680029DAD11A
:10170000F168C6E90210F8BDFEF770FDFEE730B5DE
:1017100085B0474D3EE0039C606910B1201D00F08C
:10172000C5F804A8FFF73FFF0246019830B1012831
:1017300030D002281FD003282CD128E00298A169BC
:10174000034601442046FFF7F3FE012822D1616AD7
:1017500020468847E06901281CD1002000900298AB
:10176000A1690023421819462046FFF7FBFE88B9FD
:10177000FEF73CFDFEE70298A06128B181181346F0
:101780002046FFF7D5FE05E0FEF730FDFEE72046D8
:1017900000F0FFFC00231A4601A9286800F054FA63
:1017A0000028B8D105B030BD2DE9FC410F460546F3
:1017B000FFF73AFB01A8FFF7F6FE0446019818B1BF
:1017C000FFF7C4FABDE8FC81194E37BBA54224D807
:1017D000FFF7BCFAB0682746C068C468201D00F057
:1017E00065F8E069012811D1A0692B4641193A46F4
:1017F0002046FFF79DFE012808D100200346014640
:1018000000902A462046FFF7ADFE18B1616A2046D7
:101810008847D7E7FEF7EAFCFEE7291B306800F0AF
:10182000A9FBFFF793FA0028CCD100F02EFCC9E702
:10183000AC000020F4010020546D72205376630048
:10184000CB15000000F108014FF0FF32C0E9011292
:10185000C160016100210160704700210161704792
:10186000426853684B6043688B605368996051606D
:10187000416008610168491C0160704710B50B6840
:101880005A1C02D000F1080202E0026904E052682A
:10189000546824689C42FAD953684B6099608A6006
:1018A000516008610168491C016010BDD0E9011256
:1018B0008A60D0E90112516001694A68824201D10F
:1018C00082684A60002202610868401E0860086859
:1018D0007047000070B50D46040023D000F0DBFB1C
:1018E000D4E90F20216802FB001161600021A1638F
:1018F0002168A1600A46D4E90F01401E00FB0121C6
:101900004FF0FF30E1606064A06404F1100065B145
:10191000FFF798FF04F12400FFF794FF00F0C1FBEC
:10192000012070BDFEF762FCFEE721690029F5D0B9
:10193000FFF7EFFC0128F1D100F0A7FBEEE72DE95E
:10194000F04117460E4605001BD0542000F0C8FB9E
:10195000040016D005FB06F0401C00F0C1FB20601F
:1019600060B1C4E90F5601212046FFF7B3FF84F8A8
:101970004D70002020652046BDE8F081204600F033
:1019800008FCFEF733FCFEE710B51346026C044674
:101990008AB1CBB1E06801F0D7F9E168206C091A8F
:1019A000E1602268914202D26168081AE060A06B8F
:1019B000401CA06310BD20680028F8D16068FFF7C4
:1019C0006AFD00206060F2E7A06801F0BDF9216CBB
:1019D000A0680844A06061688842E8D32068A060DD
:1019E000E5E773B500250098046D34B1A26BE06B98
:1019F000824205D3FEF7FAFBFEE7FEF7F7FBFEE7B0
:101A0000A26B82420CD20A4669462046FFF7BCFF11
:101A1000606A28B104F12400FFF77BFC00B10125C6
:101A200028467CBD70B5044600F035FB04F1240562
:101A300013E0206D30B100212046FFF7D2FF0128CE
:101A400006D007E0606A58B12846FFF762FC08B18B
:101A5000FFF7D9FCA06C401EA064A06C0028E8DC55
:101A60004FF0FF35A56400F01CFB00F014FB04F1FF
:101A700010060AE0206958B13046FFF74AFC08B169
:101A8000FFF7C1FC606C401E6064606C0028F1DCF4
:101A90006564BDE8704000F004BB2DE9FF4383B0EE
:101AA0009946884604004FF0000604D00027B8F19C
:101AB000000F03D007E0FEF799FBFEE7206C10B1A2
:101AC000FEF794FBFEE700F0E6FAA06BE16B8842BC
:101AD0001BD24A4641462046FFF756FF206D20B1F3
:101AE00049462046FFF77DFF05E0606A38B104F102
:101AF0002400FFF70EFC012801D100F0C6FA00F027
:101B0000D0FA012007B0BDE8F083059808B11EB1F6
:101B100006E000F0C6FA1DE06846FFF73DFC01262E
:101B200000F0BFFAFFF780F900F0B5FA606C401CD6
:101B300000D16764A06C401C00D1A76400F0B1FA2A
:101B400005A96846FFF733FC30B12046FFF76AFF6E
:101B5000FFF7FCF80020D5E700F09DFAA06BE16BE1
:101B6000884201D1012500E0002500F09AFA75B104
:101B700004F110000599FFF79AFB2046FFF752FF8A
:101B8000FFF7E4F800289ED100F07FFA9BE720469B
:101B9000FFF748FFFFF7DAF895E770B505465420E0
:101BA00000F09EFA04001ED0002060602060A0605B
:101BB000E060A0630121C4E90F10411E6164A164CB
:101BC00084F84D50206504F11000FFF73BFE04F14E
:101BD0002400FFF737FE00231A4619462046FFF778
:101BE0005CFF204670BDFEF701FBFEE710B5040068
:101BF00009D0FFF714FC616888420FD1E068401EED
:101C0000E06003D008E0FEF7F1FAFEE700231A4691
:101C100019462046FFF741FF012010BD002010BDEE
:101C200030B404680D46002C0CD0026CC1688B18CF
:101C3000C36041688B4200D3C460C168284630BC91
:101C400001F082B830BC70472DE9FF4383B099465C
:101C5000884604004FF0000604D00027B8F1000FBA
:101C600003D007E0FEF7C2FAFEE7206C10B1FEF7E2
:101C7000BDFAFEE700F00FFAA06B38B341462046EC
:101C8000E568FFF7CDFFB9F1000F0DD0E560606AA0
:101C900030B104F12400FFF73CFB08B100F0F5F986
:101CA00000F0FFF901202DE7A06B401EA063206823
:101CB00010B9FFF7B4FB606020690028F0D004F190
:101CC0001000FFF726FB0128E8D0E9E7059808B1E6
:101CD0001EB106E000F0E5F91DE06846FFF75CFB89
:101CE000012600F0DEF9FFF79FF800F0D4F9606CF0
:101CF000401C00D16764A06C401C00D1A76400F0B8
:101D0000D0F905A96846FFF752FB30B12046FFF72E
:101D100089FEFFF71BF80020F4E600F0BCF9A06B89
:101D200030B1002500F0BDF9D5B1206810B108E050
:101D30000125F7E700F0AFF96068FFF77EFB00F0E0
:101D4000B0F904F124000599FFF7B1FA2046FFF736
:101D500069FEFEF7FBFF00288CD100F096F989E7B9
:101D60002046FFF75FFEFEF7F1FF83E770B50D46F3
:101D7000040009D0FFF753FB6168884207D1E0688F
:101D8000401CE060012070BDFEF730FAFEE7002342
:101D90002A4619462046FFF757FF0128F3D1E1688C
:101DA000491CE16070BD10B50C4602220021FFF70E
:101DB000C6FD08B1846310BDFEF718FAFEE72DE9F1
:101DC000F041984615460F46040001D01FB107E0C8
:101DD000FEF70CFAFEE7206C10B1FEF707FAFEE7FB
:101DE000FEF704FA0646A06BE16B884223D2424616
:101DF00039462046FFF7C8FDA06C401C04D0A06CFB
:101E0000401CA064012417E0206D012730B1414639
:101E10002046FFF7E6FD012809D0F3E7606A0028B5
:101E2000F0D004F12400FFF774FA0028EAD0002D66
:101E3000E8D02F60E6E700243046FEF7DEF92046C2
:101E40009AE52DE9F04115460F46040001D01FB177
:101E500007E0FEF7CBF9FEE7206C10B1FEF7C6F9FC
:101E6000FEE7FEF7C3F90646A06BE0B1394620460F
:101E7000FFF7D6FEA06B401EA063606C401C04D030
:101E8000606C401C606401240EE020690028FAD0D8
:101E900004F11000FFF73DFA0028F4D0002DF2D035
:101EA00001202860EFE700243046FEF7A6F920461F
:101EB00062E510B5040006D000F0EDF8A46B00F068
:101EC000F0F8204610BDFEF791F9FEE710B508B115
:101ED000806B10BDFEF78AF9FEE710B504000AD04A
:101EE0004C4A002102EBC1035B68834206D100200B
:101EF00042F8310005E0FEF779F9FEE7491C0829B0
:101F0000F0D3206800F045F92046BDE8104000F00D
:101F100040B990F84C00704780F84C10704790F82A
:101F20004D00704710B518B1806B20B1002010BD76
:101F3000FEF75CF9FEE7012010BD10B528B1816BFA
:101F4000C06B814204D1012010BDFEF74FF9FEE7BE
:101F5000002010BD10B52F4B002253F832401CB1A9
:101F6000521C082AF9D310BD43F8321003EBC2010A
:101F7000486010BD70B50D46044600F08CF8616CE9
:101F80000020491C00D16064A16C491C00D1A064F0
:101F900000F087F8A06B20B9294604F12400FFF770
:101FA000A4F92046BDE870403CE500220421C6E4C7
:101FB00070B50446006D0D4608B1002070BD00F0FC
:101FC0006AF8256500F06DF8012070BD10B5044673
:101FD000006D884201D1A06B08B1002010BD00F057
:101FE0005AF80020206500F05CF8012010BD08B50B
:101FF00000230A4669460093FFF726FE009808BDB5
:1020000008B500210A4600916946FFF71AFF0098BB
:1020100008BD00001C02002010B5031F4FF08074A3
:102020001C601B1F1960191F00230B6014390A6004
:10203000091FDA1E44380A6010BD25484FF47A7132
:102040000068B0FBF1F14FF0E020491E416107212B
:10205000016170471F4810B5016841F470010160CB
:10206000016841F070410160FFF7E7FF1A49002065
:102070000860FEF789F81948016841F040410160A5
:10208000FEF778F8002010BD704712494FF08050DD
:102090001C390860704772B60F480168491C01601E
:1020A00070470D490868401E086000D162B670474D
:1020B000084910B51C394FF080500860FEF796F8BB
:1020C000FEF7EAFDBDE810400020FEF796B80000DC
:1020D0000000002020ED00E0BC00002034EF00E014
:1020E0002DE9F04104460025FEF79EFE394E06F12B
:1020F0000801706801F1080368B93748002720F02B
:102100000700C1E9000741F6F872C3E90072C0E9AF
:102110000032012070603CB11034600704D004F03C
:102120000700C0F108000444601E41F6F7729042B7
:1021300027D2284A0968083201E00A460146486861
:10214000A04202D208680028F7D1994219D0156838
:102150000868106048681035001B20280DD90B193D
:1021600058601C484C6008305C6800E0104602680B
:102170005768A742FAD31A60036048683168081AA2
:102180003060FEF7E3FD0DB9FEF70EF92846BDE815
:10219000F08110B5002817D0A0F11004FEF744FE1E
:1021A0000C496068083100E011460A6853688342B0
:1021B000FAD3226007480C6061680268114401602C
:1021C000BDE81040FEF7C2BD10BD02480068704770
:1021D00070470000C00000206402002004462AA0CE
:1021E00000F052FE204600F02BF8FEE72C498A69E9
:1021F0001202FCD40A2804D10D220A608A69120254
:10220000FCD408607047F1E7254881694904FCD493
:102210000068C0B2704722488069C0F380307047C0
:102220001F488069C0F300707047DFE700B50346C0
:10223000FFF7DCFF184600BDE6E74FF0FF307047C0
:1022400010B50446016817A000F01EFE18A06168D2
:1022500000F01AFE19A0A16800F016FE1AA0E168AD
:1022600000F012FE1BA0216900F00EFE1CA06169A7
:1022700000F00AFE1DA0A16900F006FEE169BDE8BC
:1022800010401DA000F000BE496E2048617264201D
:102290004661756C742048616E646C65720A00005A
:1022A00000000740723020203D20307825780A0059
:1022B000723120203D20307825780A0072322020AB
:1022C0003D20307825780A00723320203D20307878
:1022D00025780A00723132203D20307825780A00B6
:1022E0006C7220203D20307825780A007063202011
:1022F0003D20307825780A00707372203D203078B8
:1023000025780A0008B5D5A0006800904FF08040FD
:10231000D0F8401211F4A02F01D0002008BD08030E
:1023200001D5CF4800E0CF488A03F7D4C1F30802B3
:10233000C1F381338008921C1DF80330C1F344219E
:102340005043891C11FB03F1B0FBF1F0800008BD84
:102350004A0503D570228261082282610A0503D5ED
:10236000426942F0010242618A0401D5BE4A82619B
:10237000CA0302D54FF48032C2618A0302D54FF4FA
:102380000032C261090404D58021C16140F20F31DD
:1023900081637047002141607047416821F44051DA
:1023A0004160704742688A434260B049884201D127
:1023B00024200AE0AE49884201D1252005E0AD493C
:1023C000884201D1302000E0312000F03BB90169A2
:1023D00041F400710161416941F4807141614168DA
:1023E00041F440514160704742680A4342609F494E
:1023F000884201D124200AE09D49884201D125204C
:1024000005E09C49884201D1302000E0312000F0F5
:102410000EB92DE9FF41044697480D460FC88DE8D7
:102420000F004FF08040D0F81412D0F82002C1F312
:102430000167C0F30326002020630320E060A0684A
:102440008E490840A060E846012F02D1FFF75AFFED
:102450000190002D1AD058F82710761CB1FBF6F029
:1024600000EB5500B0FBF5F0801EB0F5803F0AD3BD
:10247000B1FBF6F000EBC500B0FBF5F06FF0010129
:1024800001EB101001E040F040506062BDE8FF81B8
:1024900070B5044600204FF080450CE0002304E0B6
:1024A0005B1CAB4201D3002070BDA6697604F7D453
:1024B00023680B54401C9042F0D370BD2DE9FF5FA0
:1024C0000C466D499A461031914605460FC9DDF814
:1024D00038B08DE80F004FF08040D0F81412D0F8DB
:1024E0002002C1F30167C0F30326E846012F02D1A1
:1024F000FFF708FF0190D4B158F82710761CB1FB04
:10250000F6F000EB5400B0FBF4F0801EB0F5803F15
:102510000AD3B1FBF6F000EBC400B0FBF4F06FF0AF
:10252000010101EB101001E040F04050686249EAFF
:102530000A0040EA0B00E860BDE8FF9F026A22F053
:10254000FF020A430262416841F400614160704742
:102550002DE9FF4704464848914620300D460FC8F4
:102560008DE80F00022020634007D0F81412D0F845
:102570002002C1F30166C0F30327E846012E02D111
:10258000FFF7C0FE019085B158F826007F1CB0FB14
:10259000F7F000EBC500B0FBF5F06FF0010101EBC7
:1025A0001010090C884200D26062A06AB9F1000FD5
:1025B00008D020F02000A062A06A40F00200A062D3
:1025C000BDE8FF8740F04000A062A06A20F0020052
:1025D000F5E710B503230363C36A294C2340C362A4
:1025E000C36A41EA02610B43C36210BD0123036366
:1025F000C36A23F0CF03C362C36A11430B43C362B0
:10260000704770B5044600204FF080450CE0002371
:1026100004E05B1CAB4201D3002070BDA669F6004C
:10262000F7D50B5C2360401C9042F0D170BD00F0E8
:102630001F02012191404009800000F1E020C0F814
:102640000011704700F01F020121914040098000F5
:1026500000F1E020C0F88011704700000102020480
:1026600000805101001BB70001000001000007407D
:102670000010074000200740043200000FFFF0FF69
:10268000FFF8FF00810F890001F18041D1F8042299
:1026900000F01F03012098408243C1F804227047D4
:1026A000FA48EFE770B510F47F3F0DD0F84CC0F357
:1026B000814304EB83031C68C0F38725C0F34416F1
:1026C000B540AC4314431C60420E52070ED0F04B91
:1026D000C0F30172103B03EB82021368C0F3426443
:1026E000C0F304508440A3430B43136070BD810FBB
:1026F000890001F18041D1F8042200F01F0301207C
:1027000098400243C1F80422704730B5044641EABC
:1027100042104FF0804240F01001C2F86012DB4DD1
:102720002846FFF7E4FF21462846BDE83040002256
:10273000B8E7D848016841F0040101608006D0F88C
:10274000001241F4C071C0F8001230BF7047D14888
:10275000016821F0040101608006D0F8001221F028
:102760008001C0F8001230BF70474FF08040D0F8B1
:102770000002C00700D0C84870474FF08040D0F832
:102780000002800702D54FF40040704700207047D8
:1027900010B5FDF743FD4FF08040D0F81002410620
:1027A000BE48006800D5400810BD10B5FDF736FDE5
:1027B0004FF08040D0F810020106B848006800D5FC
:1027C000400810BD10B5FDF729FDB448006810BDE4
:1027D00010B5FDF723FDB148006810BD10B50446E3
:1027E000AF494FF0804205E00B1EA1F1010101DC71
:1027F000002010BDD2F8503234EA0300F4D1012099
:1028000010BD2DE9F0414FF080440746D4F8500246
:102810000E4600F01005D4F8000240F00400C4F8A1
:102820000002102004F50074FFF7D8FF206940F083
:1028300007002061206A20F00F00304320622069E9
:1028400020F0070038432061A4F50074FDF7E6FC92
:10285000002D05D1D4F8000220F00400C4F80002D5
:10286000BDE8F0814FF08040D0F8401241F4803153
:10287000C0F8401270472DE9F84F0D460746FFF7A4
:10288000F1FF4FF0804B844C864EDBF80012584627
:102890009FB141F00401C0F800121020FFF79EFF25
:1028A0004FF40020B146042100907F487F4A28441D
:1028B00090420ED84FF0000A1CE041F00101C0F830
:1028C00000120120FFF78AFF0020A146022100909C
:1028D000EBE77748774A2844904203D84FF0010A43
:1028E0006D0007E07448754A2844904242D84FF082
:1028F000030AAD0000264FF0FF32374622E0B9FB55
:10290000F1FC6F486F4B604498421AD2DFF8B8E18F
:10291000DFF8B88102240CFB04F000EB0E03434502
:102920000AD8A84201D9431B00E02B1A934203D2D4
:102930001A000E46274604D040F20120641C84424F
:10294000E9D9491C2129DAD9009840EA8A3160483E
:1029500000EB46200143B81E0143CBF8401204208F
:10296000FFF73CFF0AF101007043B9FBF0F0784338
:10297000BDE8F88F7FB15749CBF840120420FFF72C
:102980002DFF55A000680090DBF8401211F4A02F35
:1029900004D00020ECE74CF22E01EDE7080300D54F
:1029A0003446880301D52046E2E7C1F30800C1F3AD
:1029B0008132A308801C1DF80220C1F34421434347
:1029C000891C11FB02F0B3FBF0F08000D0E770B57A
:1029D0004FF080450446D5F8500200F010063F48FD
:1029E000844202D83E48844200D20446D5F8000210
:1029F00040F00400C5F80002102005F50075FFF74F
:102A0000EDFE286940F007002861286A20F00F00D9
:102A10002862286DA5F50075C0074FEA440104D06F
:102A20000020FFF728FF044608E04FF40020FFF7DE
:102A300022FF0446D5F8500200F0100601210220C2
:102A4000FFF7DFFE2EB9D5F8000220F00400C5F82C
:102A50000002600870BD4FF08041D1F8102222F0D2
:102A600038020243C1F8102270474FF08041D1F87C
:102A700000220243C1F8002270474FF08041D1F894
:102A800000228243C1F80022704700000600C057B0
:102A90002002004010ED00E0001BB7000000002005
:102AA00080F52000008051017F4D19F17FB2E60EC4
:102AB000BFA68CF83F597307800F05FDC0687804E6
:102AC000FF95E7FFFFB9DB00003E14F400A3E1111E
:102AD00000FCFFFF32C408000102020400A24A0405
:102AE00040787D0130B54FF0E022002515610428C3
:102AF0000FD04FF08043D3F8104224F03804044341
:102B0000C3F8104251619561106940F003001061F3
:102B100030BD106940F004001061F3E74FF0E02190
:102B200000200861B0E7F0B500230127032507FA6C
:102B300003F40C4209D006685C0005FA04FC26EA9E
:102B40000C0602FA04F4264306605B1C102BEED33D
:102B5000F0BD10B58369140E8C4023438361C369B3
:102B600022F07F428A401343C36110BD8269012372
:102B70008B409A438261C2694FF001138B409A43A4
:102B8000C261704770B50122634DD40221462846C8
:102B9000FFF7C9FF012211032846FFF7C4FF0122F6
:102BA00051032846FFF7BFFF012291032846FFF794
:102BB000BAFF0122D1032846FFF7B5FF01222021E9
:102BC0002846FFF7B0FF2146534C012280342046AF
:102BD000FFF7A9FF012204215048FFF7A4FF0122BB
:102BE000150229462046FFF79EFF4B480122294641
:102BF0004030FFF798FF4A4901200860091D08602E
:102C0000091D0860091D0860091D0860444918393C
:102C100008604349803108604149DC31086070BD7B
:102C20002DE9F04F3E4B4FF001098E46C3F800905E
:102C30001C1DC4F80090221DC2F80090171DC7F893
:102C4000009007F1040CCCF80090354D183DC5F804
:102C50000090334E8036C6F80090DFF8C48008F14B
:102C6000DC08C8F80090DFF8B8B000210BF1740B55
:102C7000CBF80010DFF8A8A00AF1340ACAF8001057
:102C80000A283AD2DFE800F0050C0E14191E21289C
:102C90002D341960216011603960CCF800101EE0FD
:102CA00021600DE0196021603160CCF8001002E075
:102CB000196021600DE039601FE0296021603160FA
:102CC00011601AE01960296003E019602960CCF8EE
:102CD000001031601160EEE7196021601160296019
:102CE0000BE01960216011603960CCF8001002E03F
:102CF00019602160116029603160BEF1010F07D0B9
:102D0000BEF1020F02D1484651460860BDE8F08F7F
:102D100048465946F9E70000404000404041004025
:102D20006C4800400649074A0868504343F239029C
:102D3000104408604008704701490860704700006F
:102D4000DC0000206D4EC64140EA01039B0703D022
:102D500009E008C9121F08C0042AFAD203E011F8DA
:102D6000013B00F8013B521EF9D27047D2B201E09C
:102D700000F8012B491EFBD270470022F6E710B580
:102D800013460A4604461946FFF7F0FF204610BDD9
:102D9000421E12F8013F002BFBD111F8013B02F853
:102DA000013B002BF9D1704710B5044604E00B78C5
:102DB00000F8013B03B1491C521EF8D2204610BD59
:102DC0002DE9F05F0546002092469B468846064660
:102DD000814640241BE0284641464746224600F0F3
:102DE00042F853465A46C01A914110D3114618462C
:102DF000224600F029F82D1A67EB01084F462246BB
:102E00000120002100F020F817EB00094E41201EA0
:102E1000A4F10104DFDC484631462A464346BDE8BA
:102E2000F09F0000064C074D06E0E06840F001030B
:102E300094E8070098471034AC42F6D3FDF784F9C4
:102E40005032000070320000202A04DB203A00FAE1
:102E500002F1002070479140C2F1200320FA03F3F1
:102E6000194390407047202A04DB203A21FA02F0EF
:102E70000021704721FA02F3D040C2F120029140B4
:102E800008431946704700000FB4054B10B503A95D
:102E9000044A029800F02CF810BC5DF814FB000006
:102EA0002D220000D80000200FB4084B10B504A953
:102EB00002AA039800F01CF8044602A9002000F0C2
:102EC00077F9204610BC5DF814FB0000B13100001A
:102ED00002E008C8121F08C1002AFAD170477047E3
:102EE000002001E001C1121F002AFBD17047000041
:102EF0002DE9FF4F8DB09B460F460446002606E0A5
:102F000025280BD05A460F999047641C761C2078D0
:102F10000028F5D111B03046BDE8F08F0025A84655
:102F20000122984900E0054314F8013F203B02FAD2
:102F300003F00842F7D120782E2817D114F8010F9A
:102F400045F004052A280ED06FF02F022078A0F15A
:102F5000300109290AD808EB880102EB410100EB96
:102F60000108641CF2E757F8048B641C20786C2875
:102F70000DD004DC4C2812D06A2811D104E074284A
:102F80000DD07A280CD10AE045F4001507E06178ED
:102F900045F48015814202D1641C05F58015641C3E
:102FA0002078692844D008DC0028B3D0582867D09E
:102FB00063280FD0642808D13AE0702865D07328C0
:102FC00012D075285AD078285AD05A460F9990476F
:102FD000761CD5E017F8040B8DF8000000208DF862
:102FE0000100E946012003E057F8049B4FF0FF3051
:102FF00069074FF0000501D40AE06D1C45450DDA64
:103000008542FADB19F805100029F6D106E06D1C9F
:103010008542FCDB19F805100029F8D12E4404E0A4
:1030200019F8010B5A460F9990476D1EF8D2A7E088
:103030000A200021CDE90801C5F3025002280CD076
:1030400001CFC117021E71F100020CDA0023D0EB90
:10305000030063EB01012D2208E0FF1D27F00707A5
:10306000F7E80201EEE72A0504D52B228DF8282087
:1030700001223CE0EA073AD02022F7E70A2000E0EC
:1030800010200021CDE9080107E01020002145F0C3
:103090000405CDE908014FF00808C5F302500228E5
:1030A00010D001CF00214FF0000A2A0720D5227846
:1030B000702A0DD0DDE908C38CF0100C5CEA030C1B
:1030C0000CD015E0FF1D27F00707F7E80201EAE73B
:1030D00040228DF828204FF0010A0CE050EA01034D
:1030E00006D030238DF828308DF829200222924610
:1030F0002278582A04D024A20DF120090B9209E06D
:1031000026A2F9E7DDE90823FFF75AFE0B9B9B5C3B
:1031100009F8013D50EA0102F4D1ADEB090020307D
:103120000890680701D44FF001080899884503DD2D
:103130000898A8EB000000E000208046002506E08B
:103140000AA85A46405D0F9990476D1C761C55455C
:10315000F6DB04E030205A460F999047761CB8F110
:103160000001A8F10108F5DC05E019F8010B5A4649
:103170000F999047761C0899481E08900029F4DCA6
:10318000641CC4E609280100303132333435363747
:1031900038396162636465660000000030313233A3
:1031A0003435363738394142434445460000000043
:1031B0000A68531C0B60107070470000BB030000CE
:1031C0004832000032000000000000000200000051
:1031D00000000000EB030000343200003200000069
:1031E000000000000100000000000000EF030000EC
:1031F0004032000032000000000000000300000028
:1032000000000000001BB70000000000008000006C
:1032100000805101001BB70000000000008000008A
:1032200000805101001BB70000000000008000007A
:10323000008051014C45445F544F47474C450000C6
:103240004C45445F534547004C45445F544F500044
:103250007032000000000020E0000000D02E0000CE
:1032600050330000E000002080250000E02E000028
:10327000001BB7000C000000001BB700001BB700CC
:103280000080000000000000102700000000000087
:10329000000000000000000000805101000000005C
:1032A000000000000100000000000000FFFF00001F
:1032B000000000000000000000000000000000000E
:1032C000FFFF000000000000000000000000000000
:1032D00000000000000000000000000000000000EE
:1032E00000000000000000000000000000000000DE
:1032F00000000000000000000000000000000000CE
:1033000000000000000000000000000000000000BD
:10331000FFFFFFFF000000000000000000000000B1
:10332000000000000000000000000000AAAAAAAAF5
:10333000F81F000000000000000000000000000076
:10334000000000000000000000000000000000007D
:0400000500000141B5
:00000001FF
